{
  "contractName": "Stacking_Dapp",
  "abi": [
    {
      "inputs": [
        {
          "internalType": "contract Dummy",
          "name": "_dummyToken",
          "type": "address"
        },
        {
          "internalType": "contract Tether",
          "name": "_tetherDummy",
          "type": "address"
        }
      ],
      "stateMutability": "nonpayable",
      "type": "constructor"
    },
    {
      "inputs": [],
      "name": "admin",
      "outputs": [
        {
          "internalType": "address",
          "name": "",
          "type": "address"
        }
      ],
      "stateMutability": "view",
      "type": "function"
    },
    {
      "inputs": [],
      "name": "dummy_token",
      "outputs": [
        {
          "internalType": "contract Dummy",
          "name": "",
          "type": "address"
        }
      ],
      "stateMutability": "view",
      "type": "function"
    },
    {
      "inputs": [
        {
          "internalType": "address",
          "name": "",
          "type": "address"
        }
      ],
      "name": "hasStacked",
      "outputs": [
        {
          "internalType": "bool",
          "name": "",
          "type": "bool"
        }
      ],
      "stateMutability": "view",
      "type": "function"
    },
    {
      "inputs": [
        {
          "internalType": "address",
          "name": "",
          "type": "address"
        }
      ],
      "name": "isStacking",
      "outputs": [
        {
          "internalType": "bool",
          "name": "",
          "type": "bool"
        }
      ],
      "stateMutability": "view",
      "type": "function"
    },
    {
      "inputs": [],
      "name": "name",
      "outputs": [
        {
          "internalType": "string",
          "name": "",
          "type": "string"
        }
      ],
      "stateMutability": "view",
      "type": "function"
    },
    {
      "inputs": [
        {
          "internalType": "address",
          "name": "",
          "type": "address"
        }
      ],
      "name": "stackingBalance",
      "outputs": [
        {
          "internalType": "uint256",
          "name": "",
          "type": "uint256"
        }
      ],
      "stateMutability": "view",
      "type": "function"
    },
    {
      "inputs": [
        {
          "internalType": "uint256",
          "name": "",
          "type": "uint256"
        }
      ],
      "name": "stakers",
      "outputs": [
        {
          "internalType": "address",
          "name": "",
          "type": "address"
        }
      ],
      "stateMutability": "view",
      "type": "function"
    },
    {
      "inputs": [],
      "name": "tether_dummy",
      "outputs": [
        {
          "internalType": "contract Tether",
          "name": "",
          "type": "address"
        }
      ],
      "stateMutability": "view",
      "type": "function"
    },
    {
      "inputs": [
        {
          "internalType": "uint256",
          "name": "_amount",
          "type": "uint256"
        }
      ],
      "name": "stakeToken",
      "outputs": [],
      "stateMutability": "nonpayable",
      "type": "function"
    },
    {
      "inputs": [],
      "name": "unStakeToken",
      "outputs": [],
      "stateMutability": "nonpayable",
      "type": "function"
    },
    {
      "inputs": [],
      "name": "issueDummyRewards",
      "outputs": [],
      "stateMutability": "nonpayable",
      "type": "function"
    }
  ],
  "bytecode": "0x60806040526040518060400160405280600d81526020017f537461636b696e67204461707000000000000000000000000000000000000000815250600090805190602001906200005192919062000150565b503480156200005f57600080fd5b506040516200150e3803806200150e8339818101604052810190620000859190620002c3565b81600260006101000a81548173ffffffffffffffffffffffffffffffffffffffff021916908373ffffffffffffffffffffffffffffffffffffffff16021790555080600360006101000a81548173ffffffffffffffffffffffffffffffffffffffff021916908373ffffffffffffffffffffffffffffffffffffffff16021790555033600160006101000a81548173ffffffffffffffffffffffffffffffffffffffff021916908373ffffffffffffffffffffffffffffffffffffffff16021790555050506200036f565b8280546200015e9062000339565b90600052602060002090601f016020900481019282620001825760008555620001ce565b82601f106200019d57805160ff1916838001178555620001ce565b82800160010185558215620001ce579182015b82811115620001cd578251825591602001919060010190620001b0565b5b509050620001dd9190620001e1565b5090565b5b80821115620001fc576000816000905550600101620001e2565b5090565b600080fd5b600073ffffffffffffffffffffffffffffffffffffffff82169050919050565b6000620002328262000205565b9050919050565b6000620002468262000225565b9050919050565b620002588162000239565b81146200026457600080fd5b50565b60008151905062000278816200024d565b92915050565b60006200028b8262000225565b9050919050565b6200029d816200027e565b8114620002a957600080fd5b50565b600081519050620002bd8162000292565b92915050565b60008060408385031215620002dd57620002dc62000200565b5b6000620002ed8582860162000267565b92505060206200030085828601620002ac565b9150509250929050565b7f4e487b7100000000000000000000000000000000000000000000000000000000600052602260045260246000fd5b600060028204905060018216806200035257607f821691505b602082108114156200036957620003686200030a565b5b50919050565b61118f806200037f6000396000f3fe608060405234801561001057600080fd5b50600436106100a95760003560e01c806378197289116100715780637819728914610154578063cda6b84714610184578063f7feadaf146101a0578063f851a440146101aa578063f9075fc6146101c8578063fd5e6dd1146101e6576100a9565b806306fdde03146100ae57806307e9417a146100cc5780631c1d4821146100fc57806332ac90cf1461011a5780634aa3f6241461014a575b600080fd5b6100b6610216565b6040516100c39190610b83565b60405180910390f35b6100e660048036038101906100e19190610c08565b6102a4565b6040516100f39190610c50565b60405180910390f35b6101046102c4565b6040516101119190610cca565b60405180910390f35b610134600480360381019061012f9190610c08565b6102ea565b6040516101419190610c50565b60405180910390f35b61015261030a565b005b61016e60048036038101906101699190610c08565b6104d2565b60405161017b9190610cfe565b60405180910390f35b61019e60048036038101906101999190610d45565b6104ea565b005b6101a86107c6565b005b6101b2610a5f565b6040516101bf9190610d81565b60405180910390f35b6101d0610a85565b6040516101dd9190610dbd565b60405180910390f35b61020060048036038101906101fb9190610d45565b610aab565b60405161020d9190610d81565b60405180910390f35b6000805461022390610e07565b80601f016020809104026020016040519081016040528092919081815260200182805461024f90610e07565b801561029c5780601f106102715761010080835404028352916020019161029c565b820191906000526020600020905b81548152906001019060200180831161027f57829003601f168201915b505050505081565b60076020528060005260406000206000915054906101000a900460ff1681565b600360009054906101000a900473ffffffffffffffffffffffffffffffffffffffff1681565b60066020528060005260406000206000915054906101000a900460ff1681565b6000600560003373ffffffffffffffffffffffffffffffffffffffff1673ffffffffffffffffffffffffffffffffffffffff16815260200190815260200160002054905060008111610391576040517f08c379a000000000000000000000000000000000000000000000000000000000815260040161038890610e85565b60405180910390fd5b600360009054906101000a900473ffffffffffffffffffffffffffffffffffffffff1673ffffffffffffffffffffffffffffffffffffffff1663a9059cbb33836040518363ffffffff1660e01b81526004016103ee929190610ea5565b6020604051808303816000875af115801561040d573d6000803e3d6000fd5b505050506040513d601f19601f820116820180604052508101906104319190610efa565b506000600560003373ffffffffffffffffffffffffffffffffffffffff1673ffffffffffffffffffffffffffffffffffffffff168152602001908152602001600020819055506000600760003373ffffffffffffffffffffffffffffffffffffffff1673ffffffffffffffffffffffffffffffffffffffff16815260200190815260200160002060006101000a81548160ff02191690831515021790555050565b60056020528060005260406000206000915090505481565b6000811161052d576040517f08c379a000000000000000000000000000000000000000000000000000000000815260040161052490610f73565b60405180910390fd5b600360009054906101000a900473ffffffffffffffffffffffffffffffffffffffff1673ffffffffffffffffffffffffffffffffffffffff166323b872dd3330846040518463ffffffff1660e01b815260040161058c93929190610f93565b6020604051808303816000875af11580156105ab573d6000803e3d6000fd5b505050506040513d601f19601f820116820180604052508101906105cf9190610efa565b5080600560003373ffffffffffffffffffffffffffffffffffffffff1673ffffffffffffffffffffffffffffffffffffffff1681526020019081526020016000205461061b9190610ff9565b600560003373ffffffffffffffffffffffffffffffffffffffff1673ffffffffffffffffffffffffffffffffffffffff16815260200190815260200160002081905550600660003373ffffffffffffffffffffffffffffffffffffffff1673ffffffffffffffffffffffffffffffffffffffff16815260200190815260200160002060009054906101000a900460ff16610713576004339080600181540180825580915050600190039060005260206000200160009091909190916101000a81548173ffffffffffffffffffffffffffffffffffffffff021916908373ffffffffffffffffffffffffffffffffffffffff1602179055505b6001600760003373ffffffffffffffffffffffffffffffffffffffff1673ffffffffffffffffffffffffffffffffffffffff16815260200190815260200160002060006101000a81548160ff0219169083151502179055506001600660003373ffffffffffffffffffffffffffffffffffffffff1673ffffffffffffffffffffffffffffffffffffffff16815260200190815260200160002060006101000a81548160ff02191690831515021790555050565b600160009054906101000a900473ffffffffffffffffffffffffffffffffffffffff1673ffffffffffffffffffffffffffffffffffffffff163373ffffffffffffffffffffffffffffffffffffffff1614610856576040517f08c379a000000000000000000000000000000000000000000000000000000000815260040161084d906110c1565b60405180910390fd5b60005b600480549050811015610a5c57600060056000600484815481106108805761087f6110e1565b5b9060005260206000200160009054906101000a900473ffffffffffffffffffffffffffffffffffffffff1673ffffffffffffffffffffffffffffffffffffffff1673ffffffffffffffffffffffffffffffffffffffff168152602001908152602001600020541115610a4957600260009054906101000a900473ffffffffffffffffffffffffffffffffffffffff1673ffffffffffffffffffffffffffffffffffffffff1663a9059cbb6004838154811061093e5761093d6110e1565b5b9060005260206000200160009054906101000a900473ffffffffffffffffffffffffffffffffffffffff166005600060048681548110610981576109806110e1565b5b9060005260206000200160009054906101000a900473ffffffffffffffffffffffffffffffffffffffff1673ffffffffffffffffffffffffffffffffffffffff1673ffffffffffffffffffffffffffffffffffffffff168152602001908152602001600020546040518363ffffffff1660e01b8152600401610a04929190610ea5565b6020604051808303816000875af1158015610a23573d6000803e3d6000fd5b505050506040513d601f19601f82011682018060405250810190610a479190610efa565b505b8080610a5490611110565b915050610859565b50565b600160009054906101000a900473ffffffffffffffffffffffffffffffffffffffff1681565b600260009054906101000a900473ffffffffffffffffffffffffffffffffffffffff1681565b60048181548110610abb57600080fd5b906000526020600020016000915054906101000a900473ffffffffffffffffffffffffffffffffffffffff1681565b600081519050919050565b600082825260208201905092915050565b60005b83811015610b24578082015181840152602081019050610b09565b83811115610b33576000848401525b50505050565b6000601f19601f8301169050919050565b6000610b5582610aea565b610b5f8185610af5565b9350610b6f818560208601610b06565b610b7881610b39565b840191505092915050565b60006020820190508181036000830152610b9d8184610b4a565b905092915050565b600080fd5b600073ffffffffffffffffffffffffffffffffffffffff82169050919050565b6000610bd582610baa565b9050919050565b610be581610bca565b8114610bf057600080fd5b50565b600081359050610c0281610bdc565b92915050565b600060208284031215610c1e57610c1d610ba5565b5b6000610c2c84828501610bf3565b91505092915050565b60008115159050919050565b610c4a81610c35565b82525050565b6000602082019050610c656000830184610c41565b92915050565b6000819050919050565b6000610c90610c8b610c8684610baa565b610c6b565b610baa565b9050919050565b6000610ca282610c75565b9050919050565b6000610cb482610c97565b9050919050565b610cc481610ca9565b82525050565b6000602082019050610cdf6000830184610cbb565b92915050565b6000819050919050565b610cf881610ce5565b82525050565b6000602082019050610d136000830184610cef565b92915050565b610d2281610ce5565b8114610d2d57600080fd5b50565b600081359050610d3f81610d19565b92915050565b600060208284031215610d5b57610d5a610ba5565b5b6000610d6984828501610d30565b91505092915050565b610d7b81610bca565b82525050565b6000602082019050610d966000830184610d72565b92915050565b6000610da782610c97565b9050919050565b610db781610d9c565b82525050565b6000602082019050610dd26000830184610dae565b92915050565b7f4e487b7100000000000000000000000000000000000000000000000000000000600052602260045260246000fd5b60006002820490506001821680610e1f57607f821691505b60208210811415610e3357610e32610dd8565b5b50919050565b7f596f757220737461636b696e672062616c616e6365206973207a65726f000000600082015250565b6000610e6f601d83610af5565b9150610e7a82610e39565b602082019050919050565b60006020820190508181036000830152610e9e81610e62565b9050919050565b6000604082019050610eba6000830185610d72565b610ec76020830184610cef565b9392505050565b610ed781610c35565b8114610ee257600080fd5b50565b600081519050610ef481610ece565b92915050565b600060208284031215610f1057610f0f610ba5565b5b6000610f1e84828501610ee5565b91505092915050565b7f416d6f756e742043616e6e6f74206265205a65726f0000000000000000000000600082015250565b6000610f5d601583610af5565b9150610f6882610f27565b602082019050919050565b60006020820190508181036000830152610f8c81610f50565b9050919050565b6000606082019050610fa86000830186610d72565b610fb56020830185610d72565b610fc26040830184610cef565b949350505050565b7f4e487b7100000000000000000000000000000000000000000000000000000000600052601160045260246000fd5b600061100482610ce5565b915061100f83610ce5565b9250827fffffffffffffffffffffffffffffffffffffffffffffffffffffffffffffffff0382111561104457611043610fca565b5b828201905092915050565b7f4f6e6c792061646d696e2063616e20706572666f726d2074686973206163746960008201527f6f6e000000000000000000000000000000000000000000000000000000000000602082015250565b60006110ab602283610af5565b91506110b68261104f565b604082019050919050565b600060208201905081810360008301526110da8161109e565b9050919050565b7f4e487b7100000000000000000000000000000000000000000000000000000000600052603260045260246000fd5b600061111b82610ce5565b91507fffffffffffffffffffffffffffffffffffffffffffffffffffffffffffffffff82141561114e5761114d610fca565b5b60018201905091905056fea264697066735822122002ccf08306e12dc804401be7f9cdfa799dc868fe89105108a05c8afebe0c227d64736f6c634300080a0033",
  "immutableReferences": {},
  "source": "// SPDX-License-Identifier: MIT\r\n\r\npragma solidity >=0.8.10;\r\n\r\nimport \"./Tether_Token.sol\";\r\nimport \"./Dummy_Token.sol\";\r\n\r\ncontract Stacking_Dapp {\r\n  string public name = \"Stacking Dapp\";\r\n  address public admin;\r\n  Dummy public dummy_token;\r\n  Tether public tether_dummy;\r\n\r\n  address[] public stakers;\r\n\r\n  mapping(address => uint256) public stackingBalance;\r\n  mapping(address => bool) public hasStacked;\r\n  mapping(address => bool) public isStacking;\r\n\r\n  constructor(Dummy _dummyToken, Tether _tetherDummy) {\r\n    dummy_token = _dummyToken;\r\n    tether_dummy = _tetherDummy;\r\n    admin = msg.sender;\r\n  }\r\n\r\n  modifier onlyAdmin() {\r\n    require(msg.sender == admin, \"Only admin can perform this action\");\r\n    _;\r\n  }\r\n\r\n  function stakeToken(uint256 _amount) public {\r\n    require(_amount > 0, \"Amount Cannot be Zero\");\r\n\r\n    tether_dummy.transferFrom(msg.sender, address(this), _amount);\r\n    stackingBalance[msg.sender] = stackingBalance[msg.sender] + _amount;\r\n\r\n    if (!hasStacked[msg.sender]) {\r\n      stakers.push(msg.sender);\r\n    }\r\n\r\n    isStacking[msg.sender] = true;\r\n    hasStacked[msg.sender] = true;\r\n  }\r\n\r\n  function unStakeToken() public {\r\n    uint256 balance = stackingBalance[msg.sender];\r\n\r\n    require(balance > 0, \"Your stacking balance is zero\");\r\n\r\n    tether_dummy.transfer(msg.sender, balance);\r\n\r\n    stackingBalance[msg.sender] = 0;\r\n    isStacking[msg.sender] = false;\r\n  }\r\n\r\n  function issueDummyRewards() public onlyAdmin {\r\n    for (uint256 i = 0; i < stakers.length; i++) {\r\n      if (stackingBalance[stakers[i]] > 0) {\r\n        dummy_token.transfer(stakers[i], stackingBalance[stakers[i]]);\r\n      }\r\n    }\r\n  }\r\n}\r\n",
  "sourcePath": "P:\\Projects\\stacking-dapp\\contracts\\Stacking_DApp.sol",
  "compiler": {
    "name": "solc",
    "version": "0.8.10+commit.fc410830.Emscripten.clang"
  },
  "schemaVersion": "3.4.4",
  "updatedAt": "2022-01-18T15:58:48.241Z",
  "devdoc": {
    "kind": "dev",
    "methods": {},
    "version": 1
  },
  "userdoc": {
    "kind": "user",
    "methods": {},
    "version": 1
  }
}